:020000040000fa
:080000000002040000000000f2
:020000040000fa
:10040000cf802000007f2400000188000000000051
:100410000c000700e0892000010020001100070007
:10042000000020000000e000020032000000020096
:100430000000000064080200000000000040da0034
:100440000000fe004440a900000020000000e00081
:100450000300320000002000a00188004440a800f2
:100460000000060091018800800078000000eb0089
:1004700015003700e280400032a0b4009101ba00bc
:10048000e280400032a0b4009102ba00e280400055
:1004900032a0b4000002eb00472bde00f507b200eb
:1004a000602ce10004003a000059eb008301e900f0
:1004b000fdff3e00040037006128e100010032002a
:1004c0000082eb00040007001101ba000200e00006
:1004d000e8ff3a00000006003159ba008301e90044
:1004e0000c0032002159ba008301e90008003200f3
:1004f0000400e00003003a00e280400032a0b400b3
:10050000f5ff370011d9ba008301e900faff3a007c
:100510008100e800e180400032a0b4000000060045
:10052000889fbe008a9fbe00010578000100e000a0
:100530000400350008003c000000e000200032000c
:100540000500370060001000e080180002003b004a
:1005500001f02c001a0037000004be006011b80042
:100560006b0920000982cf00020039000882cf0009
:100570000441b000694252000e00320008003b0006
:1005800082817100610164008904d1000884d30074
:100590008b05e8000442e800f9ff3a000500370047
:1005a0000804440089844c008b05e9000442e900fa
:1005b000fbff3a00190107000af0a70001f0a000b4
:1005c0004f05be004f04be000000060003f0a2006d
:1005d000889fbe008a9fbe008c1f780035010700ef
:1005e0003c0133006450e1004f0032006420e10020
:1005f0005200320003826c0007003b000905d00066
:100600000306d000820f54000c065d000200390082
:1006100002003200890178000306780085825500c7
:1006200004003d000003fd008103fd008502ea0097
:100630008b854200840f720002003b0060001000b6
:10064000e08018006011b8000005eb007a28e10096
:100650000a00390006007800c75ddd00f707b20028
:10066000878075002d003700828171000a017800b3
:10067000610560008180d1000080d3008502e9001f
:10068000f9ff3b00060440008784480002003b005d
:1006900060041400e0841c000988a30007003200f5
:1006a0008a81710082817100610164008904d10036
:1006b0000884d3008b05e800170037000978a300f1
:1006c00013003a000b00e000130034008b05e90032
:1006d0000804440089844c000a4474000978a3008b
:1006e0000d003a000b00e000070034008b05e90024
:1006f0000804440089844c0001003a000b002000eb
:100700000978a300f7ff32000001eb000200370078
:10071000828171000a017800c00007000cf0a70078
:1007200001f0a000f40037006420e10002003a006c
:10073000838f6c00f40033000801be000200be008d
:10074000ed003700889fbe008a9fbe008c1f780096
:10075000d8000700df00330003866c006450e1001e
:10076000240032006420e100270032006150e100e3
:10077000220032006120e100210032008b8542001e
:10078000eb07b1000134b800003ab8000804420099
:1007900089844a00013ab8000030b80088804000df
:1007a00009014a0004003300000040008180480035
:1007b000020149008b05e900c909dd0083017000d1
:1007c0000100320013002000c814de004814dd00d0
:1007d0004709de001200b200c808de00088470007d
:1007e0008e00070001f0a1000cf0a70001f0a000ae
:1007f000c10037006120e100c30032000801be00e3
:100800000200be00f7ff37006150e100fcff3a0034
:10081000bd003700889fbe008a9fbe008c1f7800f5
:10082000a4000700ab00330003866c006450e100b5
:100830002e0032006420e100330032006150e100fc
:100840002f0032006120e100310032008585550023
:10085000eb07b00009002000080420000500370065
:100860000804440089844c000a0031000603430058
:1008700087834b000001530081815b00f8ff330048
:100880000203be000800a0000804440089844c0054
:10089000f6ff3900c639dd00830173000100320024
:1008a000130020008904d1000884d3000998a30014
:1008b000050032000800a7000300a0008904d10051
:1008c0000884d3008b05e8008904d1000884d30094
:1008d0000001eb000281d2005000070001f0a100ee
:1008e0000cf0a70001f0a000830037006420e100b5
:1008f000850032000801be000200be00f7ff37008d
:100900006120e100800032006000b800f3ff370092
:100910000000200001f82700f0ff37000001be00b2
:100920007c0007000470a70003f0a1006509b10076
:10093000160032000d0035006828e1000600350081
:10094000f0ff2f00f1ff27000300e00013003b0041
:1009500001002800000005000000400081804800e0
:100960008502e900fcff3a0008003700f88f4200da
:1009700002003c008000eb00000005008100d10077
:100980000080d3008502e800fcff3a000300e0008d
:1009900002003b0060001000e0801800000006002c
:1009a000f4ff2f0070003700140020006e003700a5
:1009b0000001be00570007000470a70003f0a1006b
:1009c00003f8a30013003a006509b10010003200db
:1009d000090035006928e100020035000100280007
:1009e0000000050000004000818048008502e90009
:1009f000fcff3a0000000600f88f420005003500b9
:100a00008100d1000080d3008502e800fcff3a009d
:100a1000000006008000eb000000050081002000bf
:100a2000618055000b003d000b00200061fe2f008f
:100a30000100e1001d003400828171006101640049
:100a40008904d1000884d3000000e800faff3a00ce
:100a5000710020006100640003007000020060006b
:100a60000900320061044400e0844c000988a500bc
:100a7000050032008b05e8006808e10002003a003a
:100a80008904d1000884d300f20f20000258e1004d
:100a900005003d00c75ddd00f907b20089807500e3
:100aa00008007800000006000bf827008b00780093
:100ab000000005000004be00160007000003be0091
:100ac0000405be000200be0012000700844f75003e
:100ad000000006000200be006450e1000500360080
:100ae0006420e100020036000968a30001003a001a
:100af0000800be000160a0004f0678004f05be0050
:100b00004f04be0000000600f0ff2f00f1ff270099
:100b1000f9ff3700c70ade00f107b200f50fb20097
:100b200008003200e1cf4200020032000170a00054
:100b300024000500810f7000010032000408050048
:100b400044000500810f700002003a001400050007
:100b50008502e9000000400081c04800fcff3b0026
:100b60000170a00024000500889fbe008a9fbe007f
:100b7000841f7800cfff07004f007800110033007a
:100b8000f0ff2f00838f6c0006003b00040565001a
:100b90000a00a7000800370009f0a6001000200096
:100ba00008003700820f5400838f5c000300390077
:100bb0001000200001003e000000200009f0a70006
:100bc0000000ea004f05be004f04be000000e00038
:040bd000000006001b
:020000040000fa
:0200000401f009
:04000c00f8ff0000f9
:020000040000fa
:0200000401f009
:040010007fff00006e
:020000040000fa
:10000800ae080000ae080000ae080000ae08000010
:10001800ae080000ae080000ae080000ae08000000
:10002800d4070000ae080000ae0800000607000074
:10003800ae080000ae080000ae080000ae080000e0
:10004800d0060000ae080000ae080000ae080000b0
:10005800ae08000014060000ae080000ae0800005c
:10006800ae080000ae080000ae080000ae080000b0
:10007800ae080000ae080000ae080000ae080000a0
:10008800ae080000ae080000ae080000ae08000090
:10009800ae080000ae080000ae080000ae08000080
:1000a800ae080000ae080000ae080000ae08000070
:1000b800ae080000ae080000ae080000ae08000060
:1000c800ae080000ae080000ae080000ae08000050
:1000d800ae080000ae080000ae080000ae08000040
:1000e800ae080000ae080000ae080000ae08000030
:1000f800ae080000ae080000ae080000ae08000020
:10010800ae080000ae080000ae080000ae0800000f
:10011800ae080000ae080000ae080000ae080000ff
:10012800ae080000ae080000ae080000ae080000ef
:10013800ae080000ae080000ae080000ae080000df
:10014800ae080000ae080000ae080000ae080000cf
:10015800ae080000ae080000ae080000ae080000bf
:10016800ae080000ae080000ae080000ae080000af
:10017800ae080000ae080000ae080000ae0800009f
:10018800ae080000ae080000ae080000ae0800008f
:10019800ae080000ae080000ae080000ae0800007f
:1001a800ae080000ae080000ae080000ae0800006f
:1001b800ae080000ae080000ae080000ae0800005f
:1001c800ae080000ae080000ae080000ae0800004f
:1001d800ae080000ae080000ae080000ae0800003f
:1001e800ae080000ae080000ae080000ae0800002f
:0801f800ae080000ae08000093
:020000040000fa
:10020800ae080000ae080000ae080000ae0800000e
:10021800ae080000ae080000ae080000ae080000fe
:10022800d4070000ae080000ae0800000607000072
:10023800ae080000ae080000ae080000ae080000de
:10024800d0060000ae080000ae080000ae080000ae
:10025800ae08000014060000ae080000ae0800005a
:10026800ae080000ae080000ae080000ae080000ae
:10027800ae080000ae080000ae080000ae0800009e
:10028800ae080000ae080000ae080000ae0800008e
:10029800ae080000ae080000ae080000ae0800007e
:1002a800ae080000ae080000ae080000ae0800006e
:1002b800ae080000ae080000ae080000ae0800005e
:1002c800ae080000ae080000ae080000ae0800004e
:1002d800ae080000ae080000ae080000ae0800003e
:1002e800ae080000ae080000ae080000ae0800002e
:1002f800ae080000ae080000ae080000ae0800001e
:10030800ae080000ae080000ae080000ae0800000d
:10031800ae080000ae080000ae080000ae080000fd
:10032800ae080000ae080000ae080000ae080000ed
:10033800ae080000ae080000ae080000ae080000dd
:10034800ae080000ae080000ae080000ae080000cd
:10035800ae080000ae080000ae080000ae080000bd
:10036800ae080000ae080000ae080000ae080000ad
:10037800ae080000ae080000ae080000ae0800009d
:10038800ae080000ae080000ae080000ae0800008d
:10039800ae080000ae080000ae080000ae0800007d
:1003a800ae080000ae080000ae080000ae0800006d
:1003b800ae080000ae080000ae080000ae0800005d
:1003c800ae080000ae080000ae080000ae0800004d
:1003d800ae080000ae080000ae080000ae0800003d
:1003e800ae080000ae080000ae080000ae0800002d
:0803f800ae080000ae08000091
:020000040000fa
:100bd4000000fa002143a80020c3bf007f4060004a
:100be40001c4b3000140700020e3b7002043a80013
:100bf4002343a80025e3a900f0c3b30024e3b7000e
:100c04003083a8000080eb00601988002c83a900c1
:100c140085a0a90095a0a80021e3a8000080fa00ff
:100c2400000006003600f800809fbe00829fbe00d0
:100c3400849fbe00869fbe00881f78000400fa00cf
:100c4400cbc2bf000080fb004700de0000417800fb
:100c5400024078000080ea008180ea006140600080
:100c6400c700dd00cbc2bf000074a10001407000ca
:100c7400cbe2b700081880006140b90027fe0700e6
:100c8400008fbe000800e00005003d0002002000c7
:100c9400037824001e00be004cfe0700008fbe0037
:100ca4003233230033a523001e00be00a4fe070038
:100cb400004088001140880085a0a9000080fa0047
:100cc4004f0478004f03be004f02be004f01be0028
:100cd4004f00be003600f900004006000000fa0094
:100ce4000000eb00b00e8800d01c2000c00e88006d
:100cf40040202100200e8800c901a800c921a800b5
:100d0400c941a900c881a800c801a900c8a1a800b8
:100d1400c821a900c8c1a800c841a800011c20001e
:100d24009140780030cfb30000c060000034a000d0
:100d3400c0e1b700c1e1a8000080fa00000006008d
:100d44000000fa000000eb00900888002111200048
:100d54009140780000c3b30000c0700012e1b700f6
:100d64000000eb0050088800205c20007008880018
:100d74008500a900810a20009140780080cfb3004b
:100d840000c060000004a000a8e0b7009500a8001f
:100d940013e1a8000080fa00000006000000fa0039
:100da4008500a9000080fa00004006000000fa0057
:100db4000000eb00200888004110200091407800da
:100dc40000c3b30000c0700004e1b7000000eb00f2
:100dd4000008880040992300100888008460a90056
:100de400510a200091407800f0c8b30000c06000b0
:100df4000044a000a5e0b7009460a80005e1a800a5
:100e04000080fa0000000600809fbe00821f780068
:100e14000000fa00cac2bf000080fb004500de00eb
:100e24006140600000417800024078000080ea00e0
:100e34008180ea0061406000614060004501dd009e
:100e4400a12c200091407800f0cdb30000c06000d8
:100e540002407000cae2b700cac2bf000080fb00b3
:100e64004500de0061406000614060004501dd0036
:100e7400b12c200091407800f0cdb30000c0600098
:100e840002407000cbe2b7008460a9000080fa0041
:100e94004f0178004f00be00004006000600fa0033
:100ea400200798000000eb00000f78000b003700cb
:100eb4000000eb0010079800030037001e009000ac
:100ec4000000e800100798009e0090002e0090009b
:100ed400808f5000f9ff39001e0fe8009028200091
:100ee4009e0f1000f2ff36000080fa00000006009a
:100ef4000c00fa00881f7800008fbe00020020005a
:100f0400031224001e00be0041fe070040079800a3
:100f140051079800280e80006140b9007ffd07004a
:100f240020079800310798000800e00007003d0002
:100f340002002000037824002e009000be009000e0
:100f4400a2fd070020079800310798002e019000a9
:100f5400be0190004e009000de009000f8fd0700f6
:100f64006dfe07004f0478000080fa0000000600c0
:100f74000200fa00cac2bf000080fb004700de0086
:100f84000080fb00000f78001e00e00003003a0020
:100f94001a00070070262000c0ff07000080fa0036
:100fa40000000600809fbe00821f78000000fa0047
:100fb40082c0bf00614060000041780002407800b8
:100fc4000080ea008180ea006140600061416000c5
:100fd4002108200091407800e0cfb30000c06000f9
:100fe4000240700082e0b7008400a9000080fa008b
:100ff4004f0178004f00be00004006000000fa00d8
:1010040040408000cf80de0044fd0700d2cc2c009d
:10101400c3e42300cafd07000002be002040800094
:10102400314080000001be000400be0067fd0700df
:1010340020408800314088002040800031408000fa
:10104400020020000300240054fe07000000e0001a
:1010540001003d00070037000000200001002400cb
:1010640020408800314088000080eb004040880028
:101074000e00370020408000314080000200200034
:1010840003f8230047fe07000000e00001003400dd
:10109400060037000000200001f8230020408800eb
:1010a400314088001000200040408800204080002b
:1010b400314080008eff0700c00e88000080fa00d7
:1010c400000006000000fa000000eb004016880053
:1010d400c8e2a80000002f0050168800c842a800eb
:1010e40017ff070031ff0700fcfe0700b8fe0700ea
:1010f4008400a9009400a8008200a8000040800099
:101104001140800002002000733e24008cfd070083
:101114003233230033052400bdfd070002002800fc
:10112400633e240029fd070020fe0700b00e88005e
:081134008fff0700f1ff3700f7
:020000040000fa
:10113c00000800000c00000002000000000000008d
:10114c0000000000803f01000001000000000000d2
:020000040000fa
:04115c000000fe0091
:00000001FF
